{
  "contractName": "SimpleBank",
  "abi": [
    {
      "inputs": [],
      "stateMutability": "nonpayable",
      "type": "constructor"
    },
    {
      "anonymous": false,
      "inputs": [
        {
          "indexed": true,
          "internalType": "address",
          "name": "from",
          "type": "address"
        },
        {
          "indexed": false,
          "internalType": "uint256",
          "name": "amount",
          "type": "uint256"
        }
      ],
      "name": "Deposit",
      "type": "event"
    },
    {
      "anonymous": false,
      "inputs": [
        {
          "indexed": true,
          "internalType": "address",
          "name": "setter",
          "type": "address"
        },
        {
          "indexed": false,
          "internalType": "uint256",
          "name": "oldValue",
          "type": "uint256"
        },
        {
          "indexed": false,
          "internalType": "uint256",
          "name": "newValue",
          "type": "uint256"
        }
      ],
      "name": "ValueChanged",
      "type": "event"
    },
    {
      "anonymous": false,
      "inputs": [
        {
          "indexed": true,
          "internalType": "address",
          "name": "to",
          "type": "address"
        },
        {
          "indexed": false,
          "internalType": "uint256",
          "name": "amount",
          "type": "uint256"
        }
      ],
      "name": "Withdrawal",
      "type": "event"
    },
    {
      "inputs": [],
      "name": "owner",
      "outputs": [
        {
          "internalType": "address",
          "name": "",
          "type": "address"
        }
      ],
      "stateMutability": "view",
      "type": "function",
      "constant": true
    },
    {
      "inputs": [],
      "name": "storedValue",
      "outputs": [
        {
          "internalType": "uint256",
          "name": "",
          "type": "uint256"
        }
      ],
      "stateMutability": "view",
      "type": "function",
      "constant": true
    },
    {
      "stateMutability": "payable",
      "type": "receive",
      "payable": true
    },
    {
      "inputs": [
        {
          "internalType": "uint256",
          "name": "_value",
          "type": "uint256"
        }
      ],
      "name": "setValue",
      "outputs": [],
      "stateMutability": "nonpayable",
      "type": "function"
    },
    {
      "inputs": [],
      "name": "getValue",
      "outputs": [
        {
          "internalType": "uint256",
          "name": "",
          "type": "uint256"
        }
      ],
      "stateMutability": "view",
      "type": "function",
      "constant": true
    },
    {
      "inputs": [
        {
          "internalType": "uint256",
          "name": "x",
          "type": "uint256"
        }
      ],
      "name": "double",
      "outputs": [
        {
          "internalType": "uint256",
          "name": "",
          "type": "uint256"
        }
      ],
      "stateMutability": "pure",
      "type": "function",
      "constant": true
    },
    {
      "inputs": [],
      "name": "deposit",
      "outputs": [],
      "stateMutability": "payable",
      "type": "function",
      "payable": true
    },
    {
      "inputs": [
        {
          "internalType": "uint256",
          "name": "amount",
          "type": "uint256"
        }
      ],
      "name": "withdraw",
      "outputs": [],
      "stateMutability": "nonpayable",
      "type": "function"
    }
  ],
  "bytecode": "0x608060405234801561000f575f80fd5b50335f806101000a81548173ffffffffffffffffffffffffffffffffffffffff021916908373ffffffffffffffffffffffffffffffffffffffff1602179055506107b28061005c5f395ff3fe608060405260043610610073575f3560e01c80636d619daa1161004d5780636d619daa146101465780638da5cb5b14610170578063d0e30db01461019a578063eee97206146101a4576100c8565b806320965255146100cc5780632e1a7d4d146100f6578063552410771461011e576100c8565b366100c8573373ffffffffffffffffffffffffffffffffffffffff167fe1fffcc4923d04b559f4d29a8bfc6cda04eb5b0d3c460751c2402c5c5cc9109c346040516100be91906104d5565b60405180910390a2005b5f80fd5b3480156100d7575f80fd5b506100e06101e0565b6040516100ed91906104d5565b60405180910390f35b348015610101575f80fd5b5061011c6004803603810190610117919061051c565b6101e9565b005b348015610129575f80fd5b50610144600480360381019061013f919061051c565b61038c565b005b348015610151575f80fd5b5061015a6103ed565b60405161016791906104d5565b60405180910390f35b34801561017b575f80fd5b506101846103f3565b6040516101919190610586565b60405180910390f35b6101a2610416565b005b3480156101af575f80fd5b506101ca60048036038101906101c5919061051c565b6104a8565b6040516101d791906104d5565b60405180910390f35b5f600154905090565b5f8054906101000a900473ffffffffffffffffffffffffffffffffffffffff1673ffffffffffffffffffffffffffffffffffffffff163373ffffffffffffffffffffffffffffffffffffffff1614610276576040517f08c379a000000000000000000000000000000000000000000000000000000000815260040161026d906105f9565b60405180910390fd5b478111156102b9576040517f08c379a00000000000000000000000000000000000000000000000000000000081526004016102b090610661565b60405180910390fd5b5f8054906101000a900473ffffffffffffffffffffffffffffffffffffffff1673ffffffffffffffffffffffffffffffffffffffff166108fc8290811502906040515f60405180830381858888f1935050505015801561031b573d5f803e3d5ffd5b505f8054906101000a900473ffffffffffffffffffffffffffffffffffffffff1673ffffffffffffffffffffffffffffffffffffffff167f7fcf532c15f0a6db0bd6d0e038bea71d30d808c7d98cb3bf7268a95bf5081b658260405161038191906104d5565b60405180910390a250565b5f6001549050816001819055503373ffffffffffffffffffffffffffffffffffffffff167fe435f0fbe584e62b62f48f4016a57ef6c95e4c79f5babbe6ad3bb64f3281d26182846040516103e192919061067f565b60405180910390a25050565b60015481565b5f8054906101000a900473ffffffffffffffffffffffffffffffffffffffff1681565b5f3411610458576040517f08c379a000000000000000000000000000000000000000000000000000000000815260040161044f906106f0565b60405180910390fd5b3373ffffffffffffffffffffffffffffffffffffffff167fe1fffcc4923d04b559f4d29a8bfc6cda04eb5b0d3c460751c2402c5c5cc9109c3460405161049e91906104d5565b60405180910390a2565b5f6002826104b6919061073b565b9050919050565b5f819050919050565b6104cf816104bd565b82525050565b5f6020820190506104e85f8301846104c6565b92915050565b5f80fd5b6104fb816104bd565b8114610505575f80fd5b50565b5f81359050610516816104f2565b92915050565b5f60208284031215610531576105306104ee565b5b5f61053e84828501610508565b91505092915050565b5f73ffffffffffffffffffffffffffffffffffffffff82169050919050565b5f61057082610547565b9050919050565b61058081610566565b82525050565b5f6020820190506105995f830184610577565b92915050565b5f82825260208201905092915050565b7f6f6e6c79206f776e6572000000000000000000000000000000000000000000005f82015250565b5f6105e3600a8361059f565b91506105ee826105af565b602082019050919050565b5f6020820190508181035f830152610610816105d7565b9050919050565b7f696e73756666696369656e742062616c616e63650000000000000000000000005f82015250565b5f61064b60148361059f565b915061065682610617565b602082019050919050565b5f6020820190508181035f8301526106788161063f565b9050919050565b5f6040820190506106925f8301856104c6565b61069f60208301846104c6565b9392505050565b7f6e6f2076616c75650000000000000000000000000000000000000000000000005f82015250565b5f6106da60088361059f565b91506106e5826106a6565b602082019050919050565b5f6020820190508181035f830152610707816106ce565b9050919050565b7f4e487b71000000000000000000000000000000000000000000000000000000005f52601160045260245ffd5b5f610745826104bd565b9150610750836104bd565b925082820261075e816104bd565b915082820484148315176107755761077461070e565b5b509291505056fea26469706673582212207d44c14957baee7b8759d64c38ac240139100c50a5ca87a22d616f8ce49f659c64736f6c63430008140033",
  "immutableReferences": {},
  "source": "// SPDX-License-Identifier: MIT\r\npragma solidity ^0.8.0;\r\n\r\ncontract SimpleBank {\r\n    address public owner;\r\n    uint public storedValue;\r\n\r\n    event ValueChanged(address indexed setter, uint oldValue, uint newValue);\r\n    event Deposit(address indexed from, uint amount);\r\n    event Withdrawal(address indexed to, uint amount);\r\n\r\n    constructor() {\r\n        owner = msg.sender;\r\n    }\r\n\r\n    modifier onlyOwner() {\r\n        require(msg.sender == owner, \"only owner\");\r\n        _;\r\n    }\r\n\r\n    function setValue(uint _value) public {\r\n        uint old = storedValue;\r\n        storedValue = _value;\r\n        emit ValueChanged(msg.sender, old, _value);\r\n    }\r\n\r\n    function getValue() public view returns (uint) {\r\n        return storedValue;\r\n    }\r\n\r\n    // pure function example\r\n    function double(uint x) public pure returns (uint) {\r\n        return x * 2;\r\n    }\r\n\r\n    // payable deposit\r\n    function deposit() public payable {\r\n        require(msg.value > 0, \"no value\");\r\n        emit Deposit(msg.sender, msg.value);\r\n    }\r\n\r\n    // owner-only withdraw\r\n    function withdraw(uint amount) public onlyOwner {\r\n        require(amount <= address(this).balance, \"insufficient balance\");\r\n        payable(owner).transfer(amount);\r\n        emit Withdrawal(owner, amount);\r\n    }\r\n\r\n    // fallback to accept ETH\r\n    receive() external payable {\r\n        emit Deposit(msg.sender, msg.value);\r\n    }\r\n}\r\n",
  "sourcePath": "/home/um/Stuffs/Truffle/contracts/SimpleBank.sol",
  "compiler": {
    "name": "solc",
    "version": "0.8.20+commit.a1b79de6.Emscripten.clang"
  },
  "schemaVersion": "3.4.16",
  "updatedAt": "2025-11-19T17:23:25.208Z",
  "networkType": "ethereum",
  "devdoc": {
    "kind": "dev",
    "methods": {},
    "version": 1
  },
  "userdoc": {
    "kind": "user",
    "methods": {},
    "version": 1
  }
}